{
  "contractName": "AutoCoinTrader",
  "abi": [
    {
      "inputs": [],
      "name": "uniswapRouter",
      "outputs": [
        {
          "internalType": "contract IUniswapV2Router02",
          "name": "",
          "type": "address"
        }
      ],
      "stateMutability": "view",
      "type": "function"
    }
  ],
  "bytecode": "0x6080604052737a250d5630b4cf539739df2c5dacb4c659f2488d6000806101000a81548173ffffffffffffffffffffffffffffffffffffffff021916908373ffffffffffffffffffffffffffffffffffffffff16021790555034801561006457600080fd5b5060d0806100736000396000f3fe6080604052348015600f57600080fd5b506004361060285760003560e01c8063735de9f714602d575b600080fd5b60336075565b604051808273ffffffffffffffffffffffffffffffffffffffff1673ffffffffffffffffffffffffffffffffffffffff16815260200191505060405180910390f35b6000809054906101000a900473ffffffffffffffffffffffffffffffffffffffff168156fea264697066735822122074360fa2507acc27d7e40c449c6e3496bb317fe65a461caf49d6fb43e063eb8b64736f6c63430006060033",
  "immutableReferences": {},
  "source": "// SPDX-License-Identifier: MIT\r\npragma solidity >=0.4.22 <0.9.0;\r\n\r\nimport \"@uniswap/v2-periphery/contracts/libraries/UniswapV2Library.sol\";\r\nimport \"@uniswap/v2-core/contracts/interfaces/IUniswapV2Pair.sol\";\r\nimport \"@uniswap/v2-periphery/contracts/UniswapV2Router02.sol\";\r\n\r\ncontract AutoCoinTrader {\r\n    address internal constant UNISWAP_ROUTER_ADDRESS =\r\n        0x7a250d5630B4cF539739dF2C5dAcb4c659F2488D;\r\n    IUniswapV2Router02 public uniswapRouter =\r\n        IUniswapV2Router02(UNISWAP_ROUTER_ADDRESS);\r\n\r\n    function trade() internal view returns (uint256[] memory amounts) {\r\n        // IUniswapV2Pair pair =\r\n        //     IUniswapV2Pair(\r\n        //         UniswapV2Library.pairFor(\r\n        //             factory,\r\n        //             \"0xf3a6679b266899042276804930b3bfbaf807f15b\",\r\n        //             \"0xf92b8cd34853d91425f79fce8c438366443ffcd7\"\r\n        //         )\r\n        //     );\r\n        address[] memory path = new address[](2);\r\n        path[0] = address(0xf92b8cD34853D91425F79Fce8c438366443FFcD7);\r\n        path[1] = uniswapRouter.WETH();\r\n        return uniswapRouter.getAmountsIn(10, path);\r\n    }\r\n}\r\n",
  "sourcePath": "C:/Users/royar/Source/repos/solidity/smart-contracts-course/auto-coin-trading/contracts/AutoCoinTrader.sol",
  "compiler": {
    "name": "solc",
    "version": "0.6.6+commit.6c089d02.Emscripten.clang"
  },
  "schemaVersion": "3.4.1",
  "updatedAt": "2021-06-05T15:18:57.054Z",
  "devdoc": {
    "methods": {}
  },
  "userdoc": {
    "methods": {}
  }
}