{
  "contractName": "AutoCoinTrader",
  "abi": [
    {
      "inputs": [
        {
          "internalType": "address",
          "name": "uniswapRouterAddr",
          "type": "address"
        }
      ],
      "name": "trade",
      "outputs": [
        {
          "internalType": "uint256[]",
          "name": "amounts",
          "type": "uint256[]"
        }
      ],
      "stateMutability": "view",
      "type": "function",
      "constant": true
    }
  ],
  "bytecode": "0x608060405234801561001057600080fd5b506103ef806100206000396000f3fe608060405234801561001057600080fd5b506004361061002b5760003560e01c8063056ba05614610030575b600080fd5b6100726004803603602081101561004657600080fd5b81019080803573ffffffffffffffffffffffffffffffffffffffff1690602001909291905050506100c9565b6040518080602001828103825283818151815260200191508051906020019060200280838360005b838110156100b557808201518184015260208101905061009a565b505050509050019250505060405180910390f35b606060008290506060600267ffffffffffffffff811180156100ea57600080fd5b506040519080825280602002602001820160405280156101195781602001602082028036833780820191505090505b50905073ea14a7826078bed4fe9f41ec322a802f169b98b98160008151811061013e57fe5b602002602001019073ffffffffffffffffffffffffffffffffffffffff16908173ffffffffffffffffffffffffffffffffffffffff16815250508173ffffffffffffffffffffffffffffffffffffffff1663ad5c46486040518163ffffffff1660e01b815260040160206040518083038186803b1580156101be57600080fd5b505afa1580156101d2573d6000803e3d6000fd5b505050506040513d60208110156101e857600080fd5b81019080805190602001909291905050508160018151811061020657fe5b602002602001019073ffffffffffffffffffffffffffffffffffffffff16908173ffffffffffffffffffffffffffffffffffffffff16815250508173ffffffffffffffffffffffffffffffffffffffff16631f00ca746001836040518363ffffffff1660e01b81526004018083815260200180602001828103825283818151815260200191508051906020019060200280838360005b838110156102b757808201518184015260208101905061029c565b50505050905001935050505060006040518083038186803b1580156102db57600080fd5b505afa1580156102ef573d6000803e3d6000fd5b505050506040513d6000823e3d601f19601f82011682018060405250602081101561031957600080fd5b810190808051604051939291908464010000000082111561033957600080fd5b8382019150602082018581111561034f57600080fd5b825186602082028301116401000000008211171561036c57600080fd5b8083526020830192505050908051906020019060200280838360005b838110156103a3578082015181840152602081019050610388565b505050509050016040525050509250505091905056fea2646970667358221220eacca14d5d12fd91a4e05f59f001f693e916fa163489435cc47ab90a2e994bc964736f6c63430006060033",
  "immutableReferences": {},
  "source": "// SPDX-License-Identifier: MIT\r\npragma solidity >=0.4.22 <0.9.0;\r\n\r\nimport \"@uniswap/v2-periphery/contracts/libraries/UniswapV2Library.sol\";\r\nimport \"@uniswap/v2-core/contracts/interfaces/IUniswapV2Pair.sol\";\r\nimport \"@uniswap/v2-periphery/contracts/UniswapV2Router02.sol\";\r\n\r\ncontract AutoCoinTrader {\r\n\r\n    function trade(address uniswapRouterAddr) public view returns (uint256[] memory amounts) {\r\n        // IUniswapV2Pair pair =\r\n        //     IUniswapV2Pair(\r\n        //         UniswapV2Library.pairFor(\r\n        //             uniswapFactoryAddr,\r\n        //             \"0xf3a6679b266899042276804930b3bfbaf807f15b\",\r\n        //             \"0xf92b8cd34853d91425f79fce8c438366443ffcd7\"\r\n        //         )\r\n        //     );\r\n        IUniswapV2Router02 uniswapRouter = IUniswapV2Router02(uniswapRouterAddr);\r\n\r\n        address[] memory path = new address[](2);\r\n        path[0] = address(0xEa14a7826078Bed4Fe9F41EC322A802f169B98b9);\r\n        path[1] = uniswapRouter.WETH();\r\n        return uniswapRouter.getAmountsIn(1, path);\r\n    }\r\n}\r\n",
  "sourcePath": "C:/Users/royar/Source/repos/solidity/smart-contracts-course/auto-coin-trading/contracts/AutoCoinTrader.sol",
  "compiler": {
    "name": "solc",
    "version": "0.6.6+commit.6c089d02.Emscripten.clang"
  },
  "schemaVersion": "3.4.1",
  "updatedAt": "2021-07-08T11:41:45.316Z",
  "networkType": "ethereum",
  "devdoc": {
    "methods": {}
  },
  "userdoc": {
    "methods": {}
  }
}